{
  "contractName": "Lottery",
  "abi": [
    {
      "constant": true,
      "inputs": [
        {
          "name": "",
          "type": "uint256"
        }
      ],
      "name": "allTicketInfo",
      "outputs": [
        {
          "name": "owner",
          "type": "address"
        },
        {
          "name": "bets",
          "type": "uint256"
        }
      ],
      "payable": false,
      "stateMutability": "view",
      "type": "function"
    }
  ],
  "bytecode": "0x608060405234801561001057600080fd5b50610141806100206000396000f3fe608060405234801561001057600080fd5b5060043610610048576000357c010000000000000000000000000000000000000000000000000000000090048063da48c0ba1461004d575b600080fd5b6100796004803603602081101561006357600080fd5b81019080803590602001909291905050506100c2565b604051808373ffffffffffffffffffffffffffffffffffffffff1673ffffffffffffffffffffffffffffffffffffffff1681526020018281526020019250505060405180910390f35b6006818154811015156100d157fe5b90600052602060002090600302016000915090508060000160009054906101000a900473ffffffffffffffffffffffffffffffffffffffff1690806001015490508256fea165627a7a723058203a9393c38d8f15f67a3e83291dfffb40085bc7c4eb27e6ff23ffd74168c788540029",
  "source": "pragma solidity ^0.5.2;\ncontract Lottery{\n    uint id;\n    bool ifWin;\n    bool ifDraw;\n    uint oneBetPrice;\n    uint BonusPool;\n    uint TotalBet;\n    uint timestamp;\n    struct AllTicketInfo{\n        address owner;\n        uint bets;\n        uint[] ticketNumber;\n    }\n    AllTicketInfo[] public allTicketInfo;\n}",
  "sourcePath": "/Users/yujia/Projects/DApp/FairLottery/contracts/Lottery.sol",
  "compiler": {
    "name": "solc",
    "version": "0.5.2+commit.1df8f40c.Emscripten.clang"
  },
  "schemaVersion": "3.4.16",
  "updatedAt": "2023-12-17T06:55:21.724Z",
  "networkType": "ethereum",
  "devdoc": {
    "methods": {}
  },
  "userdoc": {
    "methods": {}
  }
}