{
  "contractName": "Main",
  "abi": [
    {
      "constant": true,
      "inputs": [
        {
          "name": "",
          "type": "address"
        }
      ],
      "name": "ifRegister",
      "outputs": [
        {
          "name": "",
          "type": "bool"
        }
      ],
      "payable": false,
      "stateMutability": "view",
      "type": "function"
    },
    {
      "constant": true,
      "inputs": [
        {
          "name": "",
          "type": "uint256"
        }
      ],
      "name": "lotteryMap",
      "outputs": [
        {
          "name": "",
          "type": "address"
        }
      ],
      "payable": false,
      "stateMutability": "view",
      "type": "function"
    },
    {
      "inputs": [],
      "payable": false,
      "stateMutability": "nonpayable",
      "type": "constructor"
    },
    {
      "constant": false,
      "inputs": [
        {
          "name": "_oneBetPrice",
          "type": "uint256"
        },
        {
          "name": "_bonusPool",
          "type": "uint256"
        }
      ],
      "name": "_createLottery",
      "outputs": [
        {
          "name": "",
          "type": "string"
        }
      ],
      "payable": false,
      "stateMutability": "nonpayable",
      "type": "function"
    },
    {
      "constant": true,
      "inputs": [
        {
          "name": "_lid",
          "type": "uint256"
        }
      ],
      "name": "_getLotteryInfoById",
      "outputs": [
        {
          "name": "",
          "type": "uint256"
        },
        {
          "name": "",
          "type": "bool"
        },
        {
          "name": "",
          "type": "bool"
        },
        {
          "name": "",
          "type": "uint256"
        },
        {
          "name": "",
          "type": "uint256"
        },
        {
          "name": "",
          "type": "uint256"
        },
        {
          "name": "",
          "type": "uint256"
        }
      ],
      "payable": false,
      "stateMutability": "view",
      "type": "function"
    },
    {
      "constant": false,
      "inputs": [
        {
          "name": "_lid",
          "type": "uint256"
        }
      ],
      "name": "_generateWinningNumbers",
      "outputs": [
        {
          "name": "",
          "type": "string"
        }
      ],
      "payable": false,
      "stateMutability": "nonpayable",
      "type": "function"
    },
    {
      "constant": true,
      "inputs": [
        {
          "name": "_lid",
          "type": "uint256"
        }
      ],
      "name": "_getWinningNumbers",
      "outputs": [
        {
          "name": "",
          "type": "string"
        }
      ],
      "payable": false,
      "stateMutability": "view",
      "type": "function"
    },
    {
      "constant": false,
      "inputs": [
        {
          "name": "_lid",
          "type": "uint256"
        },
        {
          "name": "bets",
          "type": "uint256"
        },
        {
          "name": "ticketNumber",
          "type": "uint256[]"
        }
      ],
      "name": "_BuyTicket",
      "outputs": [
        {
          "name": "",
          "type": "string"
        }
      ],
      "payable": false,
      "stateMutability": "nonpayable",
      "type": "function"
    },
    {
      "constant": true,
      "inputs": [
        {
          "name": "_lid",
          "type": "uint256"
        }
      ],
      "name": "_getTicketInfo",
      "outputs": [
        {
          "name": "",
          "type": "string"
        }
      ],
      "payable": false,
      "stateMutability": "view",
      "type": "function"
    },
    {
      "constant": true,
      "inputs": [],
      "name": "_getUserSum",
      "outputs": [
        {
          "name": "",
          "type": "uint256"
        }
      ],
      "payable": false,
      "stateMutability": "view",
      "type": "function"
    },
    {
      "constant": false,
      "inputs": [
        {
          "name": "name",
          "type": "string"
        }
      ],
      "name": "_userRegister",
      "outputs": [
        {
          "name": "",
          "type": "string"
        }
      ],
      "payable": false,
      "stateMutability": "nonpayable",
      "type": "function"
    },
    {
      "constant": true,
      "inputs": [],
      "name": "_getUserInfo",
      "outputs": [
        {
          "name": "",
          "type": "uint256"
        },
        {
          "name": "",
          "type": "string"
        },
        {
          "name": "",
          "type": "bool"
        },
        {
          "name": "",
          "type": "uint256"
        }
      ],
      "payable": false,
      "stateMutability": "view",
      "type": "function"
    },
    {
      "constant": false,
      "inputs": [
        {
          "name": "amount",
          "type": "uint256"
        }
      ],
      "name": "_addBalance",
      "outputs": [
        {
          "name": "",
          "type": "string"
        }
      ],
      "payable": false,
      "stateMutability": "nonpayable",
      "type": "function"
    },
    {
      "constant": true,
      "inputs": [],
      "name": "_sayHello",
      "outputs": [
        {
          "name": "",
          "type": "string"
        }
      ],
      "payable": false,
      "stateMutability": "view",
      "type": "function"
    }
  ],
  "bytecode": "0x6080604052600060015534801561001557600080fd5b5061001e61007f565b604051809103906000f08015801561003a573d6000803e3d6000fd5b506000806101000a81548173ffffffffffffffffffffffffffffffffffffffff021916908373ffffffffffffffffffffffffffffffffffffffff160217905550610090565b604051610c918062002f2e83390190565b612e8e80620000a06000396000f3fe608060405234801561001057600080fd5b50600436106100ec576000357c0100000000000000000000000000000000000000000000000000000000900480637f79574d116100a9578063cdc16f3311610083578063cdc16f331461061d578063d944d7c3146106b9578063dbe9830b1461076a578063f4cb678c146108af576100ec565b80637f79574d146103d45780638942215814610508578063b88ea02e14610576576100ec565b80630bdc368f146100f15780632efbdcb01461019857806352a59d0c146101f45780635d39d6981461029b578063702c4ded1461034257806379fec829146103b6575b600080fd5b61011d6004803603602081101561010757600080fd5b8101908080359060200190929190505050610932565b6040518080602001828103825283818151815260200191508051906020019080838360005b8381101561015d578082015181840152602081019050610142565b50505050905090810190601f16801561018a5780820380516001836020036101000a031916815260200191505b509250505060405180910390f35b6101da600480360360208110156101ae57600080fd5b81019080803573ffffffffffffffffffffffffffffffffffffffff169060200190929190505050610a6f565b604051808215151515815260200191505060405180910390f35b6102206004803603602081101561020a57600080fd5b8101908080359060200190929190505050610a8f565b6040518080602001828103825283818151815260200191508051906020019080838360005b83811015610260578082015181840152602081019050610245565b50505050905090810190601f16801561028d5780820380516001836020036101000a031916815260200191505b509250505060405180910390f35b6102c7600480360360208110156102b157600080fd5b8101908080359060200190929190505050610bfb565b6040518080602001828103825283818151815260200191508051906020019080838360005b838110156103075780820151818401526020810190506102ec565b50505050905090810190601f1680156103345780820380516001836020036101000a031916815260200191505b509250505060405180910390f35b61036e6004803603602081101561035857600080fd5b8101908080359060200190929190505050610d5e565b60405180888152602001871515151581526020018615151515815260200185815260200184815260200183815260200182815260200197505050505050505060405180910390f35b6103be610e9e565b6040518082815260200191505060405180910390f35b61048d600480360360208110156103ea57600080fd5b810190808035906020019064010000000081111561040757600080fd5b82018360208201111561041957600080fd5b8035906020019184600183028401116401000000008311171561043b57600080fd5b91908080601f016020809104026020016040519081016040528093929190818152602001838380828437600081840152601f19601f820116905080830192505050505050509192919290505050610f63565b6040518080602001828103825283818151815260200191508051906020019080838360005b838110156104cd5780820151818401526020810190506104b2565b50505050905090810190601f1680156104fa5780820380516001836020036101000a031916815260200191505b509250505060405180910390f35b6105346004803603602081101561051e57600080fd5b8101908080359060200190929190505050611184565b604051808273ffffffffffffffffffffffffffffffffffffffff1673ffffffffffffffffffffffffffffffffffffffff16815260200191505060405180910390f35b6105a26004803603602081101561058c57600080fd5b81019080803590602001909291905050506111b7565b6040518080602001828103825283818151815260200191508051906020019080838360005b838110156105e25780820151818401526020810190506105c7565b50505050905090810190601f16801561060f5780820380516001836020036101000a031916815260200191505b509250505060405180910390f35b6106256112f2565b604051808581526020018060200184151515158152602001838152602001828103825285818151815260200191508051906020019080838360005b8381101561067b578082015181840152602081019050610660565b50505050905090810190601f1680156106a85780820380516001836020036101000a031916815260200191505b509550505050505060405180910390f35b6106ef600480360360408110156106cf57600080fd5b810190808035906020019092919080359060200190929190505050611473565b6040518080602001828103825283818151815260200191508051906020019080838360005b8381101561072f578082015181840152602081019050610714565b50505050905090810190601f16801561075c5780820380516001836020036101000a031916815260200191505b509250505060405180910390f35b6108346004803603606081101561078057600080fd5b810190808035906020019092919080359060200190929190803590602001906401000000008111156107b157600080fd5b8201836020820111156107c357600080fd5b803590602001918460208302840111640100000000831117156107e557600080fd5b919080806020026020016040519081016040528093929190818152602001838360200280828437600081840152601f19601f820116905080830192505050505050509192919290505050611793565b6040518080602001828103825283818151815260200191508051906020019080838360005b83811015610874578082015181840152602081019050610859565b50505050905090810190601f1680156108a15780820380516001836020036101000a031916815260200191505b509250505060405180910390f35b6108b7611b72565b6040518080602001828103825283818151815260200191508051906020019080838360005b838110156108f75780820151818401526020810190506108dc565b50505050905090810190601f1680156109245780820380516001836020036101000a031916815260200191505b509250505060405180910390f35b606060006003600084815260200190815260200160002060009054906101000a900473ffffffffffffffffffffffffffffffffffffffff16905060608173ffffffffffffffffffffffffffffffffffffffff16636ede7f436040518163ffffffff167c0100000000000000000000000000000000000000000000000000000000028152600401600060405180830381600087803b1580156109d257600080fd5b505af11580156109e6573d6000803e3d6000fd5b505050506040513d6000823e3d601f19601f820116820180604052506020811015610a1057600080fd5b810190808051640100000000811115610a2857600080fd5b82810190506020810184811115610a3e57600080fd5b8151856001820283011164010000000082111715610a5b57600080fd5b505092919050505090508092505050919050565b60026020528060005260406000206000915054906101000a900460ff1681565b606060006003600084815260200190815260200160002060009054906101000a900473ffffffffffffffffffffffffffffffffffffffff1690508073ffffffffffffffffffffffffffffffffffffffff1663cf81cbfa336040518263ffffffff167c0100000000000000000000000000000000000000000000000000000000028152600401808273ffffffffffffffffffffffffffffffffffffffff1673ffffffffffffffffffffffffffffffffffffffff16815260200191505060006040518083038186803b158015610b6257600080fd5b505afa158015610b76573d6000803e3d6000fd5b505050506040513d6000823e3d601f19601f820116820180604052506020811015610ba057600080fd5b810190808051640100000000811115610bb857600080fd5b82810190506020810184811115610bce57600080fd5b8151856001820283011164010000000082111715610beb57600080fd5b5050929190505050915050919050565b6060806000809054906101000a900473ffffffffffffffffffffffffffffffffffffffff1673ffffffffffffffffffffffffffffffffffffffff166332063aa533856040518363ffffffff167c0100000000000000000000000000000000000000000000000000000000028152600401808373ffffffffffffffffffffffffffffffffffffffff1673ffffffffffffffffffffffffffffffffffffffff16815260200182815260200192505050600060405180830381600087803b158015610cc257600080fd5b505af1158015610cd6573d6000803e3d6000fd5b505050506040513d6000823e3d601f19601f820116820180604052506020811015610d0057600080fd5b810190808051640100000000811115610d1857600080fd5b82810190506020810184811115610d2e57600080fd5b8151856001820283011164010000000082111715610d4b57600080fd5b5050929190505050905080915050919050565b600080600080600080600080600360008a815260200190815260200160002060009054906101000a900473ffffffffffffffffffffffffffffffffffffffff1690508073ffffffffffffffffffffffffffffffffffffffff1663702c4ded8a6040518263ffffffff167c01000000000000000000000000000000000000000000000000000000000281526004018082815260200191505060e06040518083038186803b158015610e0d57600080fd5b505afa158015610e21573d6000803e3d6000fd5b505050506040513d60e0811015610e3757600080fd5b8101908080519060200190929190805190602001909291908051906020019092919080519060200190929190805190602001909291908051906020019092919080519060200190929190505050975097509750975097509750975050919395979092949650565b60008060009054906101000a900473ffffffffffffffffffffffffffffffffffffffff1673ffffffffffffffffffffffffffffffffffffffff166379fec8296040518163ffffffff167c010000000000000000000000000000000000000000000000000000000002815260040160206040518083038186803b158015610f2357600080fd5b505afa158015610f37573d6000803e3d6000fd5b505050506040513d6020811015610f4d57600080fd5b8101908080519060200190929190505050905090565b60606001600260003373ffffffffffffffffffffffffffffffffffffffff1673ffffffffffffffffffffffffffffffffffffffff16815260200190815260200160002060006101000a81548160ff02191690831515021790555060606000809054906101000a900473ffffffffffffffffffffffffffffffffffffffff1673ffffffffffffffffffffffffffffffffffffffff1663356ea2f633856040518363ffffffff167c0100000000000000000000000000000000000000000000000000000000028152600401808373ffffffffffffffffffffffffffffffffffffffff1673ffffffffffffffffffffffffffffffffffffffff16815260200180602001828103825283818151815260200191508051906020019080838360005b8381101561109b578082015181840152602081019050611080565b50505050905090810190601f1680156110c85780820380516001836020036101000a031916815260200191505b509350505050600060405180830381600087803b1580156110e857600080fd5b505af11580156110fc573d6000803e3d6000fd5b505050506040513d6000823e3d601f19601f82011682018060405250602081101561112657600080fd5b81019080805164010000000081111561113e57600080fd5b8281019050602081018481111561115457600080fd5b815185600182028301116401000000008211171561117157600080fd5b5050929190505050905080915050919050565b60036020528060005260406000206000915054906101000a900473ffffffffffffffffffffffffffffffffffffffff1681565b606060006003600084815260200190815260200160002060009054906101000a900473ffffffffffffffffffffffffffffffffffffffff16905060608173ffffffffffffffffffffffffffffffffffffffff166356a0f20f6040518163ffffffff167c010000000000000000000000000000000000000000000000000000000002815260040160006040518083038186803b15801561125557600080fd5b505afa158015611269573d6000803e3d6000fd5b505050506040513d6000823e3d601f19601f82011682018060405250602081101561129357600080fd5b8101908080516401000000008111156112ab57600080fd5b828101905060208101848111156112c157600080fd5b81518560018202830111640100000000821117156112de57600080fd5b505092919050505090508092505050919050565b600060606000806000809054906101000a900473ffffffffffffffffffffffffffffffffffffffff1673ffffffffffffffffffffffffffffffffffffffff166308c18d0f336040518263ffffffff167c0100000000000000000000000000000000000000000000000000000000028152600401808273ffffffffffffffffffffffffffffffffffffffff1673ffffffffffffffffffffffffffffffffffffffff16815260200191505060006040518083038186803b1580156113b357600080fd5b505afa1580156113c7573d6000803e3d6000fd5b505050506040513d6000823e3d601f19601f8201168201806040525060808110156113f157600080fd5b8101908080519060200190929190805164010000000081111561141357600080fd5b8281019050602081018481111561142957600080fd5b815185600182028301116401000000008211171561144657600080fd5b50509291906020018051906020019092919080519060200190929190505050935093509350935090919293565b606060006001541415611570576001806000828254019250508190555060004290506001548484836114a3611c8d565b80858152602001848152602001838152602001828152602001945050505050604051809103906000f0801580156114de573d6000803e3d6000fd5b5060036000600154815260200190815260200160002060006101000a81548173ffffffffffffffffffffffffffffffffffffffff021916908373ffffffffffffffffffffffffffffffffffffffff1602179055506040805190810160405280601681526020017f4c6f74746572792043726561746520537563636573730000000000000000000081525091505061178d565b600060036000600154815260200190815260200160002060009054906101000a900473ffffffffffffffffffffffffffffffffffffffff1690508073ffffffffffffffffffffffffffffffffffffffff1663070190786040518163ffffffff167c0100000000000000000000000000000000000000000000000000000000028152600401602060405180830381600087803b15801561160e57600080fd5b505af1158015611622573d6000803e3d6000fd5b505050506040513d602081101561163857600080fd5b810190808051906020019092919050505015156116a0576040517f08c379a0000000000000000000000000000000000000000000000000000000008152600401808060200182810382526024815260200180612e3f6024913960400191505060405180910390fd5b6001806000828254019250508190555060004290506001548585836116c3611c8d565b80858152602001848152602001838152602001828152602001945050505050604051809103906000f0801580156116fe573d6000803e3d6000fd5b5060036000600154815260200190815260200160002060006101000a81548173ffffffffffffffffffffffffffffffffffffffff021916908373ffffffffffffffffffffffffffffffffffffffff1602179055506040805190810160405280601681526020017f4c6f747465727920437265617465205375636365737300000000000000000000815250925050505b92915050565b606060011515600260003373ffffffffffffffffffffffffffffffffffffffff1673ffffffffffffffffffffffffffffffffffffffff16815260200190815260200160002060009054906101000a900460ff16151514151561185d576040517f08c379a00000000000000000000000000000000000000000000000000000000081526004018080602001828103825260118152602001807f55736572206e6f7420726567697374657200000000000000000000000000000081525060200191505060405180910390fd5b600073ffffffffffffffffffffffffffffffffffffffff166003600086815260200190815260200160002060009054906101000a900473ffffffffffffffffffffffffffffffffffffffff1673ffffffffffffffffffffffffffffffffffffffff1614151515611935576040517f08c379a00000000000000000000000000000000000000000000000000000000081526004018080602001828103825260128152602001807f4c6f7474657279206e6f7420657869737473000000000000000000000000000081525060200191505060405180910390fd5b6000831115156119ad576040517f08c379a000000000000000000000000000000000000000000000000000000000815260040180806020018281038252601b8152602001807f42657473206d7573742062652067726561746572207468616e2030000000000081525060200191505060405180910390fd5b60006003600086815260200190815260200160002060009054906101000a900473ffffffffffffffffffffffffffffffffffffffff16905060608173ffffffffffffffffffffffffffffffffffffffff1663b75777b53387876040518463ffffffff167c0100000000000000000000000000000000000000000000000000000000028152600401808473ffffffffffffffffffffffffffffffffffffffff1673ffffffffffffffffffffffffffffffffffffffff16815260200183815260200180602001828103825283818151815260200191508051906020019060200280838360005b83811015611aac578082015181840152602081019050611a91565b50505050905001945050505050600060405180830381600087803b158015611ad357600080fd5b505af1158015611ae7573d6000803e3d6000fd5b505050506040513d6000823e3d601f19601f820116820180604052506020811015611b1157600080fd5b810190808051640100000000811115611b2957600080fd5b82810190506020810184811115611b3f57600080fd5b8151856001820283011164010000000082111715611b5c57600080fd5b5050929190505050905080925050509392505050565b60606000809054906101000a900473ffffffffffffffffffffffffffffffffffffffff1673ffffffffffffffffffffffffffffffffffffffff1663f4cb678c6040518163ffffffff167c010000000000000000000000000000000000000000000000000000000002815260040160006040518083038186803b158015611bf757600080fd5b505afa158015611c0b573d6000803e3d6000fd5b505050506040513d6000823e3d601f19601f820116820180604052506020811015611c3557600080fd5b810190808051640100000000811115611c4d57600080fd5b82810190506020810184811115611c6357600080fd5b8151856001820283011164010000000082111715611c8057600080fd5b5050929190505050905090565b6040516111a180611c9e8339019056fe6080604052600060085534801561001557600080fd5b506040516080806111a18339810180604052608081101561003557600080fd5b810190808051906020019092919080519060200190929190805190602001909291908051906020019092919050505083600081905550826002819055506000600160006101000a81548160ff02191690831515021790555060006001806101000a81548160ff021916908315150217905550816003819055506000600481905550809050505050506110d5806100cc6000396000f3fe608060405234801561001057600080fd5b50600436106100b0576000357c0100000000000000000000000000000000000000000000000000000000900480636ede7f43116100835780636ede7f43146101ba578063702c4ded1461023d578063b75777b5146102b1578063cf81cbfa1461040c578063da48c0ba146104c9576100b0565b806307019078146100b55780634e45f095146100d757806356a0f20f1461011957806356d3e57d1461019c575b600080fd5b6100bd61053e565b604051808215151515815260200191505060405180910390f35b610103600480360360208110156100ed57600080fd5b8101908080359060200190929190505050610562565b6040518082815260200191505060405180910390f35b610121610585565b6040518080602001828103825283818151815260200191508051906020019080838360005b83811015610161578082015181840152602081019050610146565b50505050905090810190601f16801561018e5780820380516001836020036101000a031916815260200191505b509250505060405180910390f35b6101a461069d565b6040518082815260200191505060405180910390f35b6101c2610748565b6040518080602001828103825283818151815260200191508051906020019080838360005b838110156102025780820151818401526020810190506101e7565b50505050905090810190601f16801561022f5780820380516001836020036101000a031916815260200191505b509250505060405180910390f35b6102696004803603602081101561025357600080fd5b8101908080359060200190929190505050610858565b60405180888152602001871515151581526020018615151515815260200185815260200184815260200183815260200182815260200197505050505050505060405180910390f35b610391600480360360608110156102c757600080fd5b81019080803573ffffffffffffffffffffffffffffffffffffffff169060200190929190803590602001909291908035906020019064010000000081111561030e57600080fd5b82018360208201111561032057600080fd5b8035906020019184602083028401116401000000008311171561034257600080fd5b919080806020026020016040519081016040528093929190818152602001838360200280828437600081840152601f19601f8201169050808301925050505050505091929192905050506108a8565b6040518080602001828103825283818151815260200191508051906020019080838360005b838110156103d15780820151818401526020810190506103b6565b50505050905090810190601f1680156103fe5780820380516001836020036101000a031916815260200191505b509250505060405180910390f35b61044e6004803603602081101561042257600080fd5b81019080803573ffffffffffffffffffffffffffffffffffffffff1690602001909291905050506109b9565b6040518080602001828103825283818151815260200191508051906020019080838360005b8381101561048e578082015181840152602081019050610473565b50505050905090810190601f1680156104bb5780820380516001836020036101000a031916815260200191505b509250505060405180910390f35b6104f5600480360360208110156104df57600080fd5b8101908080359060200190929190505050610bee565b604051808373ffffffffffffffffffffffffffffffffffffffff1673ffffffffffffffffffffffffffffffffffffffff1681526020018281526020019250505060405180910390f35b60006001809054906101000a900460ff1661055a57600061055d565b60015b905090565b60078181548110151561057157fe5b906000526020600020016000915090505481565b6060806040805190810160405280600581526020017f5265643a20000000000000000000000000000000000000000000000000000000815250905060008090505b600781101561069557600681141561061a57610617826040805190810160405280600681526020017f426c75653a200000000000000000000000000000000000000000000000000000815250610c41565b91505b6106458261064060078481548110151561063057fe5b9060005260206000200154610e14565b610c41565b9150610686826040805190810160405280600181526020017f2000000000000000000000000000000000000000000000000000000000000000815250610c41565b915080806001019150506105c6565b508091505090565b600060086000815480929190600101919050555060006064423343600854604051602001808581526020018473ffffffffffffffffffffffffffffffffffffffff1673ffffffffffffffffffffffffffffffffffffffff166c01000000000000000000000000028152601401838152602001828152602001945050505050604051602081830303815290604052805190602001206001900481151561073e57fe5b0690508091505090565b606060006007805490501415156107c7576040517f08c379a000000000000000000000000000000000000000000000000000000000815260040180806020018281038252601e8152602001807f57696e6e696e67204e756d6265727320616c726561647920657869737473000081525060200191505060405180910390fd5b60008090505b600781101561081c5760006107e061069d565b905060078190806001815401808255809150509060018203906000526020600020016000909192909190915055505080806001019150506107cd565b506040805190810160405280602081526020017f47656e65726174652057696e6e696e67204e756d626572732053756363657373815250905090565b600080600080600080600087600160009054906101000a900460ff166001809054906101000a900460ff166002546003546004546005549650965096509650965096509650919395979092949650565b606060066060604051908101604052808673ffffffffffffffffffffffffffffffffffffffff168152602001858152602001848152509080600181540180825580915050906001820390600052602060002090600302016000909192909190915060008201518160000160006101000a81548173ffffffffffffffffffffffffffffffffffffffff021916908373ffffffffffffffffffffffffffffffffffffffff160217905550602082015181600101556040820151816002019080519060200190610976929190611037565b505050506040805190810160405280601181526020017f4275795469636b6574205375636365737300000000000000000000000000000081525090509392505050565b6060806020604051908101604052806000815250905060008090505b600680549050811015610be4578373ffffffffffffffffffffffffffffffffffffffff16600682815481101515610a0857fe5b906000526020600020906003020160000160009054906101000a900473ffffffffffffffffffffffffffffffffffffffff1673ffffffffffffffffffffffffffffffffffffffff161415610bd757610a95826040805190810160405280601981526020017f20596f7572204e756d6265723a20285265642042616c6c292000000000000000815250610c41565b915060008090505b6001600683815481101515610aae57fe5b90600052602060002090600302016002018054905003811015610b2357610b1483610b0f600685815481101515610ae157fe5b906000526020600020906003020160020184815481101515610aff57fe5b9060005260206000200154610e14565b610c41565b92508080600101915050610a9d565b50610b63826040805190810160405280600c81526020017f28426c75652042616c6c29200000000000000000000000000000000000000000815250610c41565b9150610bd482610bcf600684815481101515610b7b57fe5b90600052602060002090600302016002016001600686815481101515610b9d57fe5b90600052602060002090600302016002018054905003815481101515610bbf57fe5b9060005260206000200154610e14565b610c41565b91505b80806001019150506109d5565b5080915050919050565b600681815481101515610bfd57fe5b90600052602060002090600302016000915090508060000160009054906101000a900473ffffffffffffffffffffffffffffffffffffffff16908060010154905082565b6060808390506060839050606081518351016040519080825280601f01601f191660200182016040528015610c855781602001600182028038833980820191505090505b5090506060819050600080905060008090505b8551811015610d4b578581815181101515610caf57fe5b9060200101517f010000000000000000000000000000000000000000000000000000000000000090047f0100000000000000000000000000000000000000000000000000000000000000028383806001019450815181101515610d0e57fe5b9060200101907effffffffffffffffffffffffffffffffffffffffffffffffffffffffffffff1916908160001a9053508080600101915050610c98565b5060008090505b8451811015610e05578481815181101515610d6957fe5b9060200101517f010000000000000000000000000000000000000000000000000000000000000090047f0100000000000000000000000000000000000000000000000000000000000000028383806001019450815181101515610dc857fe5b9060200101907effffffffffffffffffffffffffffffffffffffffffffffffffffffffffffff1916908160001a9053508080600101915050610d52565b50819550505050505092915050565b60606000821415610e5c576040805190810160405280600181526020017f30000000000000000000000000000000000000000000000000000000000000008152509050611032565b6000606490506060816040519080825280601f01601f191660200182016040528015610e975781602001600182028038833980820191505090505b50905060008090505b600085141515610f3a576000600a86811515610eb857fe5b069050600a86811515610ec757fe5b049550806030017f0100000000000000000000000000000000000000000000000000000000000000028383806001019450815181101515610f0457fe5b9060200101907effffffffffffffffffffffffffffffffffffffffffffffffffffffffffffff1916908160001a90535050610ea0565b6060816040519080825280601f01601f191660200182016040528015610f6f5781602001600182028038833980820191505090505b50905060008090505b828110156110295783600182850303815181101515610f9357fe5b9060200101517f010000000000000000000000000000000000000000000000000000000000000090047f0100000000000000000000000000000000000000000000000000000000000000028282815181101515610fec57fe5b9060200101907effffffffffffffffffffffffffffffffffffffffffffffffffffffffffffff1916908160001a9053508080600101915050610f78565b50809450505050505b919050565b828054828255906000526020600020908101928215611073579160200282015b82811115611072578251825591602001919060010190611057565b5b5090506110809190611084565b5090565b6110a691905b808211156110a257600081600090555060010161108a565b5090565b9056fea165627a7a723058200345635b138c1c9d3ae7f29e0fb8a5e5b29c3af2f76fc0fef9760e42149648ae00295374696c6c20657869737473204c6f747465727920776974686f75742044726177696e67a165627a7a72305820d08e09f9cf47644b5001ede6c9ffdefc40be89da3e9f2a856b338b73acbf0697002960806040526000805534801561001457600080fd5b50610c6d806100246000396000f3fe608060405234801561001057600080fd5b506004361061007f576000357c01000000000000000000000000000000000000000000000000000000009004806308c18d0f146100845780632bcc23f81461015a57806332063aa514610230578063356ea2f6146102f757806379fec8291461044b578063f4cb678c14610469575b600080fd5b6100c66004803603602081101561009a57600080fd5b81019080803573ffffffffffffffffffffffffffffffffffffffff1690602001909291905050506104ec565b604051808581526020018060200184151515158152602001838152602001828103825285818151815260200191508051906020019080838360005b8381101561011c578082015181840152602081019050610101565b50505050905090810190601f1680156101495780820380516001836020036101000a031916815260200191505b509550505050505060405180910390f35b61019c6004803603602081101561017057600080fd5b81019080803573ffffffffffffffffffffffffffffffffffffffff169060200190929190505050610771565b604051808581526020018060200184151515158152602001838152602001828103825285818151815260200191508051906020019080838360005b838110156101f25780820151818401526020810190506101d7565b50505050905090810190601f16801561021f5780820380516001836020036101000a031916815260200191505b509550505050505060405180910390f35b61027c6004803603604081101561024657600080fd5b81019080803573ffffffffffffffffffffffffffffffffffffffff16906020019092919080359060200190929190505050610846565b6040518080602001828103825283818151815260200191508051906020019080838360005b838110156102bc5780820151818401526020810190506102a1565b50505050905090810190601f1680156102e95780820380516001836020036101000a031916815260200191505b509250505060405180910390f35b6103d06004803603604081101561030d57600080fd5b81019080803573ffffffffffffffffffffffffffffffffffffffff1690602001909291908035906020019064010000000081111561034a57600080fd5b82018360208201111561035c57600080fd5b8035906020019184600183028401116401000000008311171561037e57600080fd5b91908080601f016020809104026020016040519081016040528093929190818152602001838380828437600081840152601f19601f820116905080830192505050505050509192919290505050610991565b6040518080602001828103825283818151815260200191508051906020019080838360005b838110156104105780820151818401526020810190506103f5565b50505050905090810190601f16801561043d5780820380516001836020036101000a031916815260200191505b509250505060405180910390f35b610453610b56565b6040518082815260200191505060405180910390f35b610471610b5f565b6040518080602001828103825283818151815260200191508051906020019080838360005b838110156104b1578082015181840152602081019050610496565b50505050905090810190601f1680156104de5780820380516001836020036101000a031916815260200191505b509250505060405180910390f35b600060606000806000600160008773ffffffffffffffffffffffffffffffffffffffff1673ffffffffffffffffffffffffffffffffffffffff16815260200190815260200160002060000154141515156105ae576040517f08c379a000000000000000000000000000000000000000000000000000000000815260040180806020018281038252600f8152602001807f55736572206e6f7420657869737473000000000000000000000000000000000081525060200191505060405180910390fd5b600160008673ffffffffffffffffffffffffffffffffffffffff1673ffffffffffffffffffffffffffffffffffffffff16815260200190815260200160002060000154600160008773ffffffffffffffffffffffffffffffffffffffff1673ffffffffffffffffffffffffffffffffffffffff168152602001908152602001600020600101600160008873ffffffffffffffffffffffffffffffffffffffff1673ffffffffffffffffffffffffffffffffffffffff16815260200190815260200160002060020160009054906101000a900460ff16600160008973ffffffffffffffffffffffffffffffffffffffff1673ffffffffffffffffffffffffffffffffffffffff16815260200190815260200160002060030154828054600181600116156101000203166002900480601f01602080910402602001604051908101604052809291908181526020018280546001816001161561010002031660029004801561075b5780601f106107305761010080835404028352916020019161075b565b820191906000526020600020905b81548152906001019060200180831161073e57829003601f168201915b5050505050925093509350935093509193509193565b6001602052806000526040600020600091509050806000015490806001018054600181600116156101000203166002900480601f0160208091040260200160405190810160405280929190818152602001828054600181600116156101000203166002900480156108235780601f106107f857610100808354040283529160200191610823565b820191906000526020600020905b81548152906001019060200180831161080657829003601f168201915b5050505050908060020160009054906101000a900460ff16908060030154905084565b60606000600160008573ffffffffffffffffffffffffffffffffffffffff1673ffffffffffffffffffffffffffffffffffffffff1681526020019081526020016000206000015414151515610903576040517f08c379a000000000000000000000000000000000000000000000000000000000815260040180806020018281038252600f8152602001807f55736572206e6f7420657869737473000000000000000000000000000000000081525060200191505060405180910390fd5b81600160008573ffffffffffffffffffffffffffffffffffffffff1673ffffffffffffffffffffffffffffffffffffffff168152602001908152602001600020600301600082825401925050819055506040805190810160405280601381526020017f4164642042616c616e6365205375636365737300000000000000000000000000815250905092915050565b60606000600160008573ffffffffffffffffffffffffffffffffffffffff1673ffffffffffffffffffffffffffffffffffffffff16815260200190815260200160002060000154141515610a4d576040517f08c379a00000000000000000000000000000000000000000000000000000000081526004018080602001828103825260138152602001807f5573657220616c7265616479206578697374730000000000000000000000000081525060200191505060405180910390fd5b6001600080828254019250508190555060806040519081016040528060005481526020018381526020016000151581526020016000815250600160008573ffffffffffffffffffffffffffffffffffffffff1673ffffffffffffffffffffffffffffffffffffffff168152602001908152602001600020600082015181600001556020820151816001019080519060200190610aea929190610b9c565b5060408201518160020160006101000a81548160ff021916908315150217905550606082015181600301559050506040805190810160405280601581526020017f5573657220526567697374657220537563636573730000000000000000000000815250905092915050565b60008054905090565b60606040805190810160405280600581526020017f48656c6c6f000000000000000000000000000000000000000000000000000000815250905090565b828054600181600116156101000203166002900490600052602060002090601f016020900481019282601f10610bdd57805160ff1916838001178555610c0b565b82800160010185558215610c0b579182015b82811115610c0a578251825591602001919060010190610bef565b5b509050610c189190610c1c565b5090565b610c3e91905b80821115610c3a576000816000905550600101610c22565b5090565b9056fea165627a7a7230582009f3700e0ebd3612bf566c5caeadb109e55da421109084bbf4493a419d10fa4f0029",
  "source": "import \"./User.sol\";\nimport \"./ShuangSeQiu.sol\";\npragma solidity ^0.5.2;\ncontract Main{\n    User user;\n    constructor () public {\n        user = new User();\n    }\n    uint lid = 0; // Lottery id\n    mapping(address => bool) public ifRegister;\n    mapping(uint => address) public lotteryMap;\n\n    // Lottery Function\n    function _createLottery(uint _oneBetPrice, uint _bonusPool) public returns(string memory){\n        if(lid == 0){\n            lid += 1;\n            uint timestamp = now;\n            lotteryMap[lid] = address(new ShuangSeQiu(lid, _oneBetPrice, _bonusPool, timestamp));\n            return \"Lottery Create Success\";\n        }else{\n            ShuangSeQiu ssq = ShuangSeQiu(lotteryMap[lid]);\n            require(ssq._ifDraw(), \"Still exists Lottery without Drawing\");\n            lid += 1;\n            uint timestamp = now;\n            lotteryMap[lid] = address(new ShuangSeQiu(lid, _oneBetPrice, _bonusPool, timestamp));\n            return \"Lottery Create Success\";\n        }\n        \n    }\n    function _getLotteryInfoById(uint _lid) public view returns(uint, bool, bool, uint, uint, uint, uint){\n        ShuangSeQiu ssq = ShuangSeQiu(lotteryMap[_lid]);\n        return ssq._getLotteryInfoById(_lid);\n    }\n    function _generateWinningNumbers(uint _lid) public returns(string memory){\n        ShuangSeQiu ssq = ShuangSeQiu(lotteryMap[_lid]);\n        string memory res = ssq._generateWinningNumbers();\n        return res;\n    }\n    function _getWinningNumbers(uint _lid) public view returns(string memory){\n        ShuangSeQiu ssq = ShuangSeQiu(lotteryMap[_lid]);\n        string memory res = ssq._getWinningNumbers();\n        return res;\n    }\n    function _BuyTicket(uint _lid, uint bets, uint[] memory ticketNumber) public returns(string memory){\n        require(ifRegister[msg.sender] == true, \"User not register\");\n        require(lotteryMap[_lid] != address(0), \"Lottery not exists\");\n        require(bets > 0, \"Bets must be greater than 0\");\n        ShuangSeQiu ssq = ShuangSeQiu(lotteryMap[_lid]);\n        string memory res = ssq._BuyTicket(msg.sender, bets, ticketNumber);\n        return res;\n    }\n    function _getTicketInfo(uint _lid) public view returns(string memory){\n        ShuangSeQiu ssq = ShuangSeQiu(lotteryMap[_lid]);\n        return ssq._getTicketInfo(msg.sender);\n    }\n\n\n\n\n\n    // User Function \n    function _getUserSum() public view returns(uint){\n        return user._getUserSum();\n    }\n\n    function _userRegister(string memory name) public returns(string memory){\n        ifRegister[msg.sender] = true;\n        string memory res = user._userRegister(msg.sender, name);\n        return res;\n    }\n    function _getUserInfo() public view returns(uint, string memory, bool, uint){\n        return user._getUserInfo(msg.sender);\n    }\n\n    function _addBalance(uint amount) public returns(string memory){\n        string memory res = user._addBalance(msg.sender, amount);\n        return res;\n    }\n\n    function _sayHello() public view returns(string memory){\n        return user._sayHello();\n    }\n}",
  "sourcePath": "/Users/yujia/Projects/DApp/FairLottery/contracts/Main.sol",
  "compiler": {
    "name": "solc",
    "version": "0.5.2+commit.1df8f40c.Emscripten.clang"
  },
  "schemaVersion": "3.4.16",
  "updatedAt": "2023-12-17T07:07:59.887Z",
  "devdoc": {
    "methods": {}
  },
  "userdoc": {
    "methods": {}
  }
}