{
  "contractName": "ShuangSeQiu",
  "abi": [
    {
      "constant": true,
      "inputs": [
        {
          "name": "",
          "type": "uint256"
        }
      ],
      "name": "winningNumbers",
      "outputs": [
        {
          "name": "",
          "type": "uint256"
        }
      ],
      "payable": false,
      "stateMutability": "view",
      "type": "function"
    },
    {
      "constant": true,
      "inputs": [
        {
          "name": "",
          "type": "uint256"
        }
      ],
      "name": "allTicketInfo",
      "outputs": [
        {
          "name": "owner",
          "type": "address"
        },
        {
          "name": "bets",
          "type": "uint256"
        }
      ],
      "payable": false,
      "stateMutability": "view",
      "type": "function"
    },
    {
      "inputs": [
        {
          "name": "_id",
          "type": "uint256"
        },
        {
          "name": "_oneBetPrice",
          "type": "uint256"
        },
        {
          "name": "_bonusPool",
          "type": "uint256"
        },
        {
          "name": "timestamp",
          "type": "uint256"
        }
      ],
      "payable": false,
      "stateMutability": "nonpayable",
      "type": "constructor"
    },
    {
      "constant": false,
      "inputs": [],
      "name": "_ifDraw",
      "outputs": [
        {
          "name": "",
          "type": "bool"
        }
      ],
      "payable": false,
      "stateMutability": "nonpayable",
      "type": "function"
    },
    {
      "constant": false,
      "inputs": [],
      "name": "_generateRandomNumber",
      "outputs": [
        {
          "name": "",
          "type": "uint256"
        }
      ],
      "payable": false,
      "stateMutability": "nonpayable",
      "type": "function"
    },
    {
      "constant": true,
      "inputs": [
        {
          "name": "id",
          "type": "uint256"
        }
      ],
      "name": "_getLotteryInfoById",
      "outputs": [
        {
          "name": "",
          "type": "uint256"
        },
        {
          "name": "",
          "type": "bool"
        },
        {
          "name": "",
          "type": "bool"
        },
        {
          "name": "",
          "type": "uint256"
        },
        {
          "name": "",
          "type": "uint256"
        },
        {
          "name": "",
          "type": "uint256"
        },
        {
          "name": "",
          "type": "uint256"
        }
      ],
      "payable": false,
      "stateMutability": "view",
      "type": "function"
    },
    {
      "constant": false,
      "inputs": [],
      "name": "_generateWinningNumbers",
      "outputs": [
        {
          "name": "",
          "type": "string"
        }
      ],
      "payable": false,
      "stateMutability": "nonpayable",
      "type": "function"
    },
    {
      "constant": true,
      "inputs": [],
      "name": "_getWinningNumbers",
      "outputs": [
        {
          "name": "",
          "type": "string"
        }
      ],
      "payable": false,
      "stateMutability": "view",
      "type": "function"
    },
    {
      "constant": false,
      "inputs": [
        {
          "name": "_useraddr",
          "type": "address"
        },
        {
          "name": "bets",
          "type": "uint256"
        },
        {
          "name": "ticketNumber",
          "type": "uint256[]"
        }
      ],
      "name": "_BuyTicket",
      "outputs": [
        {
          "name": "",
          "type": "string"
        }
      ],
      "payable": false,
      "stateMutability": "nonpayable",
      "type": "function"
    },
    {
      "constant": true,
      "inputs": [
        {
          "name": "_useraddr",
          "type": "address"
        }
      ],
      "name": "_getTicketInfo",
      "outputs": [
        {
          "name": "",
          "type": "string"
        }
      ],
      "payable": false,
      "stateMutability": "view",
      "type": "function"
    }
  ],
  "bytecode": "0x6080604052600060085534801561001557600080fd5b506040516080806111a18339810180604052608081101561003557600080fd5b810190808051906020019092919080519060200190929190805190602001909291908051906020019092919050505083600081905550826002819055506000600160006101000a81548160ff02191690831515021790555060006001806101000a81548160ff021916908315150217905550816003819055506000600481905550809050505050506110d5806100cc6000396000f3fe608060405234801561001057600080fd5b50600436106100b0576000357c0100000000000000000000000000000000000000000000000000000000900480636ede7f43116100835780636ede7f43146101ba578063702c4ded1461023d578063b75777b5146102b1578063cf81cbfa1461040c578063da48c0ba146104c9576100b0565b806307019078146100b55780634e45f095146100d757806356a0f20f1461011957806356d3e57d1461019c575b600080fd5b6100bd61053e565b604051808215151515815260200191505060405180910390f35b610103600480360360208110156100ed57600080fd5b8101908080359060200190929190505050610562565b6040518082815260200191505060405180910390f35b610121610585565b6040518080602001828103825283818151815260200191508051906020019080838360005b83811015610161578082015181840152602081019050610146565b50505050905090810190601f16801561018e5780820380516001836020036101000a031916815260200191505b509250505060405180910390f35b6101a461069d565b6040518082815260200191505060405180910390f35b6101c2610748565b6040518080602001828103825283818151815260200191508051906020019080838360005b838110156102025780820151818401526020810190506101e7565b50505050905090810190601f16801561022f5780820380516001836020036101000a031916815260200191505b509250505060405180910390f35b6102696004803603602081101561025357600080fd5b8101908080359060200190929190505050610858565b60405180888152602001871515151581526020018615151515815260200185815260200184815260200183815260200182815260200197505050505050505060405180910390f35b610391600480360360608110156102c757600080fd5b81019080803573ffffffffffffffffffffffffffffffffffffffff169060200190929190803590602001909291908035906020019064010000000081111561030e57600080fd5b82018360208201111561032057600080fd5b8035906020019184602083028401116401000000008311171561034257600080fd5b919080806020026020016040519081016040528093929190818152602001838360200280828437600081840152601f19601f8201169050808301925050505050505091929192905050506108a8565b6040518080602001828103825283818151815260200191508051906020019080838360005b838110156103d15780820151818401526020810190506103b6565b50505050905090810190601f1680156103fe5780820380516001836020036101000a031916815260200191505b509250505060405180910390f35b61044e6004803603602081101561042257600080fd5b81019080803573ffffffffffffffffffffffffffffffffffffffff1690602001909291905050506109b9565b6040518080602001828103825283818151815260200191508051906020019080838360005b8381101561048e578082015181840152602081019050610473565b50505050905090810190601f1680156104bb5780820380516001836020036101000a031916815260200191505b509250505060405180910390f35b6104f5600480360360208110156104df57600080fd5b8101908080359060200190929190505050610bee565b604051808373ffffffffffffffffffffffffffffffffffffffff1673ffffffffffffffffffffffffffffffffffffffff1681526020018281526020019250505060405180910390f35b60006001809054906101000a900460ff1661055a57600061055d565b60015b905090565b60078181548110151561057157fe5b906000526020600020016000915090505481565b6060806040805190810160405280600581526020017f5265643a20000000000000000000000000000000000000000000000000000000815250905060008090505b600781101561069557600681141561061a57610617826040805190810160405280600681526020017f426c75653a200000000000000000000000000000000000000000000000000000815250610c41565b91505b6106458261064060078481548110151561063057fe5b9060005260206000200154610e14565b610c41565b9150610686826040805190810160405280600181526020017f2000000000000000000000000000000000000000000000000000000000000000815250610c41565b915080806001019150506105c6565b508091505090565b600060086000815480929190600101919050555060006064423343600854604051602001808581526020018473ffffffffffffffffffffffffffffffffffffffff1673ffffffffffffffffffffffffffffffffffffffff166c01000000000000000000000000028152601401838152602001828152602001945050505050604051602081830303815290604052805190602001206001900481151561073e57fe5b0690508091505090565b606060006007805490501415156107c7576040517f08c379a000000000000000000000000000000000000000000000000000000000815260040180806020018281038252601e8152602001807f57696e6e696e67204e756d6265727320616c726561647920657869737473000081525060200191505060405180910390fd5b60008090505b600781101561081c5760006107e061069d565b905060078190806001815401808255809150509060018203906000526020600020016000909192909190915055505080806001019150506107cd565b506040805190810160405280602081526020017f47656e65726174652057696e6e696e67204e756d626572732053756363657373815250905090565b600080600080600080600087600160009054906101000a900460ff166001809054906101000a900460ff166002546003546004546005549650965096509650965096509650919395979092949650565b606060066060604051908101604052808673ffffffffffffffffffffffffffffffffffffffff168152602001858152602001848152509080600181540180825580915050906001820390600052602060002090600302016000909192909190915060008201518160000160006101000a81548173ffffffffffffffffffffffffffffffffffffffff021916908373ffffffffffffffffffffffffffffffffffffffff160217905550602082015181600101556040820151816002019080519060200190610976929190611037565b505050506040805190810160405280601181526020017f4275795469636b6574205375636365737300000000000000000000000000000081525090509392505050565b6060806020604051908101604052806000815250905060008090505b600680549050811015610be4578373ffffffffffffffffffffffffffffffffffffffff16600682815481101515610a0857fe5b906000526020600020906003020160000160009054906101000a900473ffffffffffffffffffffffffffffffffffffffff1673ffffffffffffffffffffffffffffffffffffffff161415610bd757610a95826040805190810160405280601981526020017f20596f7572204e756d6265723a20285265642042616c6c292000000000000000815250610c41565b915060008090505b6001600683815481101515610aae57fe5b90600052602060002090600302016002018054905003811015610b2357610b1483610b0f600685815481101515610ae157fe5b906000526020600020906003020160020184815481101515610aff57fe5b9060005260206000200154610e14565b610c41565b92508080600101915050610a9d565b50610b63826040805190810160405280600c81526020017f28426c75652042616c6c29200000000000000000000000000000000000000000815250610c41565b9150610bd482610bcf600684815481101515610b7b57fe5b90600052602060002090600302016002016001600686815481101515610b9d57fe5b90600052602060002090600302016002018054905003815481101515610bbf57fe5b9060005260206000200154610e14565b610c41565b91505b80806001019150506109d5565b5080915050919050565b600681815481101515610bfd57fe5b90600052602060002090600302016000915090508060000160009054906101000a900473ffffffffffffffffffffffffffffffffffffffff16908060010154905082565b6060808390506060839050606081518351016040519080825280601f01601f191660200182016040528015610c855781602001600182028038833980820191505090505b5090506060819050600080905060008090505b8551811015610d4b578581815181101515610caf57fe5b9060200101517f010000000000000000000000000000000000000000000000000000000000000090047f0100000000000000000000000000000000000000000000000000000000000000028383806001019450815181101515610d0e57fe5b9060200101907effffffffffffffffffffffffffffffffffffffffffffffffffffffffffffff1916908160001a9053508080600101915050610c98565b5060008090505b8451811015610e05578481815181101515610d6957fe5b9060200101517f010000000000000000000000000000000000000000000000000000000000000090047f0100000000000000000000000000000000000000000000000000000000000000028383806001019450815181101515610dc857fe5b9060200101907effffffffffffffffffffffffffffffffffffffffffffffffffffffffffffff1916908160001a9053508080600101915050610d52565b50819550505050505092915050565b60606000821415610e5c576040805190810160405280600181526020017f30000000000000000000000000000000000000000000000000000000000000008152509050611032565b6000606490506060816040519080825280601f01601f191660200182016040528015610e975781602001600182028038833980820191505090505b50905060008090505b600085141515610f3a576000600a86811515610eb857fe5b069050600a86811515610ec757fe5b049550806030017f0100000000000000000000000000000000000000000000000000000000000000028383806001019450815181101515610f0457fe5b9060200101907effffffffffffffffffffffffffffffffffffffffffffffffffffffffffffff1916908160001a90535050610ea0565b6060816040519080825280601f01601f191660200182016040528015610f6f5781602001600182028038833980820191505090505b50905060008090505b828110156110295783600182850303815181101515610f9357fe5b9060200101517f010000000000000000000000000000000000000000000000000000000000000090047f0100000000000000000000000000000000000000000000000000000000000000028282815181101515610fec57fe5b9060200101907effffffffffffffffffffffffffffffffffffffffffffffffffffffffffffff1916908160001a9053508080600101915050610f78565b50809450505050505b919050565b828054828255906000526020600020908101928215611073579160200282015b82811115611072578251825591602001919060010190611057565b5b5090506110809190611084565b5090565b6110a691905b808211156110a257600081600090555060010161108a565b5090565b9056fea165627a7a723058200345635b138c1c9d3ae7f29e0fb8a5e5b29c3af2f76fc0fef9760e42149648ae0029",
  "source": "pragma solidity ^0.5.2;\nimport \"./Lottery.sol\";\ncontract ShuangSeQiu is Lottery{\n    uint[] public winningNumbers;\n    uint private nonce = 0;\n    constructor(uint _id, uint _oneBetPrice, uint _bonusPool, uint timestamp) public {\n        id = _id;\n        oneBetPrice = _oneBetPrice;\n        ifWin = false;\n        ifDraw = false;\n        BonusPool = _bonusPool;\n        TotalBet = 0;\n        timestamp = timestamp;\n    }\n    \n    function uintToString(uint v) internal pure returns (string memory str) {\n        if (v == 0) {\n            return \"0\";\n        }\n        uint maxlength = 100;\n        bytes memory reversed = new bytes(maxlength);\n        uint i = 0;\n        while (v != 0) {\n            uint remainder = v % 10;\n            v = v / 10;\n            reversed[i++] = byte(uint8(48 + remainder));\n        }\n        bytes memory s = new bytes(i); // 不需要 i + 1\n        for (uint j = 0; j < i; j++) {\n            s[j] = reversed[i - j - 1];\n        }\n        return string(s);\n    }\n    function strCat(string memory a, string memory b) internal pure returns (string memory) {\n        bytes memory bytesA = bytes(a);\n        bytes memory bytesB = bytes(b);\n        string memory concatenatedString = new string(bytesA.length + bytesB.length);\n        bytes memory bytesConcatenated = bytes(concatenatedString);\n        uint k = 0;\n        for (uint i = 0; i < bytesA.length; i++) {\n            bytesConcatenated[k++] = bytesA[i];\n        }\n        for (uint i = 0; i < bytesB.length; i++) {\n            bytesConcatenated[k++] = bytesB[i];\n        }\n        return string(bytesConcatenated);\n    }\n    function _ifDraw() public returns (bool){\n        return ifDraw ? true : false;\n    }\n\n    function _generateRandomNumber() public returns(uint){\n        nonce++;\n        uint random = uint(keccak256(abi.encodePacked(now, msg.sender, block.number, nonce))) % 100;\n        return random;\n    }\n\n    function _getLotteryInfoById(uint id) public view returns(uint, bool, bool, uint, uint, uint, uint){\n        return (id, ifWin, ifDraw, oneBetPrice, BonusPool, TotalBet, timestamp);\n    }\n\n    function _generateWinningNumbers() public returns(string memory){\n        require(winningNumbers.length == 0, \"Winning Numbers already exists\");\n        for(uint i = 0; i < 7; i++){\n            uint random = _generateRandomNumber();\n            winningNumbers.push(random);\n        }\n        return \"Generate Winning Numbers Success\";\n    }\n\n    function _getWinningNumbers() public view returns(string memory){\n        string memory winningNumbersStr = \"Red: \";\n        for(uint i = 0; i < 7; i++){\n            if(i == 6){\n                winningNumbersStr = strCat(winningNumbersStr, \"Blue: \");\n            }\n            winningNumbersStr = strCat(winningNumbersStr, uintToString(winningNumbers[i]));\n            winningNumbersStr = strCat(winningNumbersStr, \" \");\n        }\n        return winningNumbersStr;\n    }\n\n    function _BuyTicket(address _useraddr, uint bets, uint[] memory ticketNumber) public returns(string memory){\n        allTicketInfo.push(AllTicketInfo(_useraddr, bets, ticketNumber));\n        return \"BuyTicket Success\";\n    }\n    \n    function _getTicketInfo(address _useraddr) public view returns (string memory){\n        string memory ticketInfo = \"\";\n        for(uint i = 0; i < allTicketInfo.length; i++){\n            if(allTicketInfo[i].owner == _useraddr){\n                ticketInfo = strCat(ticketInfo, \" Your Number: (Red Ball) \");\n                for(uint j = 0; j < allTicketInfo[i].ticketNumber.length - 1; j++){\n                    ticketInfo = strCat(ticketInfo, uintToString(allTicketInfo[i].ticketNumber[j]));\n                }\n                ticketInfo = strCat(ticketInfo, \"(Blue Ball) \");\n                ticketInfo = strCat(ticketInfo, uintToString(allTicketInfo[i].ticketNumber[allTicketInfo[i].ticketNumber.length - 1]));\n            }\n        }\n        return ticketInfo;\n    }\n}",
  "sourcePath": "/Users/yujia/Projects/DApp/FairLottery/contracts/ShuangSeQiu.sol",
  "compiler": {
    "name": "solc",
    "version": "0.5.2+commit.1df8f40c.Emscripten.clang"
  },
  "schemaVersion": "3.4.16",
  "updatedAt": "2023-12-17T07:07:59.892Z",
  "devdoc": {
    "methods": {}
  },
  "userdoc": {
    "methods": {}
  }
}