{
  "contractName": "User",
  "abi": [
    {
      "constant": true,
      "inputs": [
        {
          "name": "",
          "type": "address"
        }
      ],
      "name": "userMap",
      "outputs": [
        {
          "name": "id",
          "type": "uint256"
        },
        {
          "name": "name",
          "type": "string"
        },
        {
          "name": "ifWiner",
          "type": "bool"
        },
        {
          "name": "balance",
          "type": "uint256"
        }
      ],
      "payable": false,
      "stateMutability": "view",
      "type": "function"
    },
    {
      "constant": true,
      "inputs": [],
      "name": "_getUserSum",
      "outputs": [
        {
          "name": "",
          "type": "uint256"
        }
      ],
      "payable": false,
      "stateMutability": "view",
      "type": "function"
    },
    {
      "constant": false,
      "inputs": [
        {
          "name": "_useraddr",
          "type": "address"
        },
        {
          "name": "name",
          "type": "string"
        }
      ],
      "name": "_userRegister",
      "outputs": [
        {
          "name": "",
          "type": "string"
        }
      ],
      "payable": false,
      "stateMutability": "nonpayable",
      "type": "function"
    },
    {
      "constant": true,
      "inputs": [
        {
          "name": "_useraddr",
          "type": "address"
        }
      ],
      "name": "_getUserInfo",
      "outputs": [
        {
          "name": "",
          "type": "uint256"
        },
        {
          "name": "name",
          "type": "string"
        },
        {
          "name": "",
          "type": "bool"
        },
        {
          "name": "",
          "type": "uint256"
        }
      ],
      "payable": false,
      "stateMutability": "view",
      "type": "function"
    },
    {
      "constant": false,
      "inputs": [
        {
          "name": "_useraddr",
          "type": "address"
        },
        {
          "name": "amount",
          "type": "uint256"
        }
      ],
      "name": "_addBalance",
      "outputs": [
        {
          "name": "",
          "type": "string"
        }
      ],
      "payable": false,
      "stateMutability": "nonpayable",
      "type": "function"
    },
    {
      "constant": true,
      "inputs": [],
      "name": "_sayHello",
      "outputs": [
        {
          "name": "",
          "type": "string"
        }
      ],
      "payable": false,
      "stateMutability": "pure",
      "type": "function"
    }
  ],
  "bytecode": "0x60806040526000805534801561001457600080fd5b50610c6d806100246000396000f3fe608060405234801561001057600080fd5b506004361061007f576000357c01000000000000000000000000000000000000000000000000000000009004806308c18d0f146100845780632bcc23f81461015a57806332063aa514610230578063356ea2f6146102f757806379fec8291461044b578063f4cb678c14610469575b600080fd5b6100c66004803603602081101561009a57600080fd5b81019080803573ffffffffffffffffffffffffffffffffffffffff1690602001909291905050506104ec565b604051808581526020018060200184151515158152602001838152602001828103825285818151815260200191508051906020019080838360005b8381101561011c578082015181840152602081019050610101565b50505050905090810190601f1680156101495780820380516001836020036101000a031916815260200191505b509550505050505060405180910390f35b61019c6004803603602081101561017057600080fd5b81019080803573ffffffffffffffffffffffffffffffffffffffff169060200190929190505050610771565b604051808581526020018060200184151515158152602001838152602001828103825285818151815260200191508051906020019080838360005b838110156101f25780820151818401526020810190506101d7565b50505050905090810190601f16801561021f5780820380516001836020036101000a031916815260200191505b509550505050505060405180910390f35b61027c6004803603604081101561024657600080fd5b81019080803573ffffffffffffffffffffffffffffffffffffffff16906020019092919080359060200190929190505050610846565b6040518080602001828103825283818151815260200191508051906020019080838360005b838110156102bc5780820151818401526020810190506102a1565b50505050905090810190601f1680156102e95780820380516001836020036101000a031916815260200191505b509250505060405180910390f35b6103d06004803603604081101561030d57600080fd5b81019080803573ffffffffffffffffffffffffffffffffffffffff1690602001909291908035906020019064010000000081111561034a57600080fd5b82018360208201111561035c57600080fd5b8035906020019184600183028401116401000000008311171561037e57600080fd5b91908080601f016020809104026020016040519081016040528093929190818152602001838380828437600081840152601f19601f820116905080830192505050505050509192919290505050610991565b6040518080602001828103825283818151815260200191508051906020019080838360005b838110156104105780820151818401526020810190506103f5565b50505050905090810190601f16801561043d5780820380516001836020036101000a031916815260200191505b509250505060405180910390f35b610453610b56565b6040518082815260200191505060405180910390f35b610471610b5f565b6040518080602001828103825283818151815260200191508051906020019080838360005b838110156104b1578082015181840152602081019050610496565b50505050905090810190601f1680156104de5780820380516001836020036101000a031916815260200191505b509250505060405180910390f35b600060606000806000600160008773ffffffffffffffffffffffffffffffffffffffff1673ffffffffffffffffffffffffffffffffffffffff16815260200190815260200160002060000154141515156105ae576040517f08c379a000000000000000000000000000000000000000000000000000000000815260040180806020018281038252600f8152602001807f55736572206e6f7420657869737473000000000000000000000000000000000081525060200191505060405180910390fd5b600160008673ffffffffffffffffffffffffffffffffffffffff1673ffffffffffffffffffffffffffffffffffffffff16815260200190815260200160002060000154600160008773ffffffffffffffffffffffffffffffffffffffff1673ffffffffffffffffffffffffffffffffffffffff168152602001908152602001600020600101600160008873ffffffffffffffffffffffffffffffffffffffff1673ffffffffffffffffffffffffffffffffffffffff16815260200190815260200160002060020160009054906101000a900460ff16600160008973ffffffffffffffffffffffffffffffffffffffff1673ffffffffffffffffffffffffffffffffffffffff16815260200190815260200160002060030154828054600181600116156101000203166002900480601f01602080910402602001604051908101604052809291908181526020018280546001816001161561010002031660029004801561075b5780601f106107305761010080835404028352916020019161075b565b820191906000526020600020905b81548152906001019060200180831161073e57829003601f168201915b5050505050925093509350935093509193509193565b6001602052806000526040600020600091509050806000015490806001018054600181600116156101000203166002900480601f0160208091040260200160405190810160405280929190818152602001828054600181600116156101000203166002900480156108235780601f106107f857610100808354040283529160200191610823565b820191906000526020600020905b81548152906001019060200180831161080657829003601f168201915b5050505050908060020160009054906101000a900460ff16908060030154905084565b60606000600160008573ffffffffffffffffffffffffffffffffffffffff1673ffffffffffffffffffffffffffffffffffffffff1681526020019081526020016000206000015414151515610903576040517f08c379a000000000000000000000000000000000000000000000000000000000815260040180806020018281038252600f8152602001807f55736572206e6f7420657869737473000000000000000000000000000000000081525060200191505060405180910390fd5b81600160008573ffffffffffffffffffffffffffffffffffffffff1673ffffffffffffffffffffffffffffffffffffffff168152602001908152602001600020600301600082825401925050819055506040805190810160405280601381526020017f4164642042616c616e6365205375636365737300000000000000000000000000815250905092915050565b60606000600160008573ffffffffffffffffffffffffffffffffffffffff1673ffffffffffffffffffffffffffffffffffffffff16815260200190815260200160002060000154141515610a4d576040517f08c379a00000000000000000000000000000000000000000000000000000000081526004018080602001828103825260138152602001807f5573657220616c7265616479206578697374730000000000000000000000000081525060200191505060405180910390fd5b6001600080828254019250508190555060806040519081016040528060005481526020018381526020016000151581526020016000815250600160008573ffffffffffffffffffffffffffffffffffffffff1673ffffffffffffffffffffffffffffffffffffffff168152602001908152602001600020600082015181600001556020820151816001019080519060200190610aea929190610b9c565b5060408201518160020160006101000a81548160ff021916908315150217905550606082015181600301559050506040805190810160405280601581526020017f5573657220526567697374657220537563636573730000000000000000000000815250905092915050565b60008054905090565b60606040805190810160405280600581526020017f48656c6c6f000000000000000000000000000000000000000000000000000000815250905090565b828054600181600116156101000203166002900490600052602060002090601f016020900481019282601f10610bdd57805160ff1916838001178555610c0b565b82800160010185558215610c0b579182015b82811115610c0a578251825591602001919060010190610bef565b5b509050610c189190610c1c565b5090565b610c3e91905b80821115610c3a576000816000905550600101610c22565b5090565b9056fea165627a7a7230582009f3700e0ebd3612bf566c5caeadb109e55da421109084bbf4493a419d10fa4f0029",
  "source": "pragma solidity ^0.5.2;\n\ncontract User{\n    struct User{\n        uint id;\n        string name;\n        bool ifWiner;\n        uint balance;\n    }\n\n    uint uid = 0;\n    mapping(address => User) public userMap;\n\n    function _getUserSum() public view returns(uint){\n        return uid;\n    }\n    \n    // 最后记得添加 event 事件\n    function _userRegister(address _useraddr, string memory name) public returns(string memory){\n        require(userMap[_useraddr].id == 0, \"User already exists\");\n        uid += 1;\n        userMap[_useraddr] = User(uid, name, false, 0);\n        return \"User Register Success\";\n    }\n\n    function _getUserInfo(address _useraddr) public view returns(uint, string memory name, bool, uint){\n        require(userMap[_useraddr].id != 0, \"User not exists\");\n        return (userMap[_useraddr].id, userMap[_useraddr].name, userMap[_useraddr].ifWiner, userMap[_useraddr].balance);\n    }\n\n    function _addBalance(address _useraddr, uint amount) public returns(string memory){\n        require(userMap[_useraddr].id != 0, \"User not exists\");\n        userMap[_useraddr].balance += amount;\n        return \"Add Balance Success\";\n    }\n    \n    function _sayHello() public pure returns(string memory){\n        return \"Hello\";\n    }\n\n}\n",
  "sourcePath": "/Users/yujia/Projects/DApp/FairLottery/contracts/User.sol",
  "compiler": {
    "name": "solc",
    "version": "0.5.2+commit.1df8f40c.Emscripten.clang"
  },
  "schemaVersion": "3.4.16",
  "updatedAt": "2023-12-17T06:55:21.633Z",
  "networkType": "ethereum",
  "devdoc": {
    "methods": {}
  },
  "userdoc": {
    "methods": {}
  }
}